:100000000C94E2000C9470060C9449060C940A01BE
:100010000C940A010C940A010C940A010C940A0134
:100020000C940A010C940A010C940A010C940A0124
:100030000C940A010C940A010C940A010C940A0114
:100040000C94FF050C940A010C94CD050C94A705A3
:100050000C940A010C940A010C940A010C940A01F4
:100060000C940A010C940A01005EBCE2613FDD833E
:10007000C29C7E20A3FD1F419DC3217FFCA2401E88
:100080005F01E3BD3E6082DC237D9FC1421CFEA078
:10009000E1BF5D0380DE3C62BEE0025CDF81633D68
:1000A0007C22C09E1D43A1FF4618FAA427799BC558
:1000B00084DA3866E5BB5907DB856739BAE4065848
:1000C0001947A5FB7826C49A653BD987045AB8E638
:1000D000A7F91B45C6987A24F8A6441A99C7257B28
:1000E0003A6486D85B05E7B98CD2306EEDB3510F18
:1000F0004E10F2AC2F7193CD114FADF3702ECC9208
:10010000D38D6F31B2EC0E50AFF1134DCE90722CF7
:100110006D33D18F0C52B0EE326C8ED0530DEFB1E7
:10012000F0AE4C1291CF2D73CA947628ABF51749D7
:100130000856B4EA6937D58B5709EBB536688AD4C7
:1001400095CB2977F4AA4816E9B7550B88D6346AB7
:100150002B7597C94A14F6A8742AC896154BA9F7A7
:10016000B6E80A54D7896B35000000002400270048
:100170002A0000000000250028002B0000000008D5
:10018000000201000003040700000000000000005E
:1001900000000000230026002900040404040404D5
:1001A0000404020202020202030303030303010226
:1001B00004081020408001020408102001020408F5
:1001C0001020970611241FBECFEFD8E0DEBFCDBFB1
:1001D00011E0A0E0B1E0E8E8F9E102C005900D927D
:1001E000AC35B107D9F722E0ACE5B1E001C01D9212
:1001F000AA32B207E1F710E0C2EED0E004C02197C6
:10020000FE010E94B70CC13ED107C9F70E941C072E
:100210000C94C20C0C9400000895CF92DF92EF92E0
:10022000FF920F931F93CF93DF936C017A018B01A1
:10023000C0E0D0E0CE15DF0589F0D8016D918D01C9
:10024000D601ED91FC910190F081E02DC601099558
:10025000892B11F47E0102C02196ECCFC701DF91FA
:10026000CF911F910F91FF90EF90DF90CF90089565
:10027000089580E090E00895FC01538D448D252F72
:1002800030E0842F90E0821B930B541710F0CF9630
:10029000089501970895FC01918D828D981761F062
:1002A000828DDF01A80FB11D5D968C91928D9F5FAD
:1002B0009F73928F90E008958FEF9FEF0895FC0158
:1002C000918D828D981731F0828DE80FF11D858D0B
:1002D00090E008958FEF9FEF0895FC01918D228D9E
:1002E000892F90E0805C9F4F821B91098F73992723
:1002F00008958AE691E00E946D0121E0892B09F4BE
:1003000020E0822F0895FC01848DDF01A80FB11D2C
:10031000A35ABF4F2C91848D90E001968F7399273B
:10032000848FA689B7892C93A089B1898C91806428
:100330008C93938D848D981306C00288F389E02DE9
:1003400080818F7D80830895EF92FF920F931F939A
:10035000CF93DF93EC0181E0888F9B8D8C8D981378
:1003600005C0E889F989808185FD24C0F62E0B8DB2
:1003700010E00F5F1F4F0F731127E02E8C8DE812D6
:100380000CC00FB607FCFACFE889F989808185FF98
:10039000F5CFCE010E948301F1CF8B8DFE01E80FD6
:1003A000F11DE35AFF4FF0820B8FEA89FB898081B0
:1003B000806207C0EE89FF896083E889F9898081BE
:1003C0008064808381E090E0DF91CF911F910F9155
:1003D000FF90EF900895CF93DF93EC01888D8823F1
:1003E000C9F0EA89FB89808185FD05C0A889B989A2
:1003F0008C9186FD0FC00FB607FCF5CF808185FF7D
:10040000F2CFA889B9898C9185FFEDCFCE010E94EA
:100410008301E7CFDF91CF91089580E090E0892BB1
:1004200029F00E94790181110C940000089590E058
:10043000FC01E458FE4F3491FC01E255FE4F24913B
:10044000FC01E656FE4FE491EE2309F43BC0332352
:1004500039F1333091F038F43130A9F0323001F510
:1004600084B58F7D12C0373091F03830A1F0343030
:10047000B9F4809180008F7D03C0809180008F77D8
:10048000809380000DC084B58F7784BD09C08091B2
:10049000B0008F7703C08091B0008F7D8093B00053
:1004A000F0E0EE0FFF1FEE58FE4FA591B4918FB70D
:1004B000F894EC91611103C020952E2301C02E2BDE
:1004C0002C938FBF0895CF93DF9390E0FC01E2550A
:1004D000FE4F2491FC01E656FE4F8491882361F182
:1004E00090E0880F991FFC01E859FE4FC591D49107
:1004F000FC01EE58FE4FA591B491611109C09FB760
:10050000F8948881209582238883EC912E230BC058
:10051000623061F49FB7F8943881822F80958323ED
:100520008883EC912E2B2C939FBF06C08FB7F89435
:10053000E8812E2B28838FBFDF91CF9108953FB79D
:10054000F8948091610190916201A0916301B09152
:10055000640126B5A89B05C02F3F19F00196A11D87
:10056000B11D3FBFBA2FA92F982F8827820F911D49
:10057000A11DB11DBC01CD0142E0660F771F881F90
:10058000991F4A95D1F708958F929F92AF92BF928B
:10059000CF92DF92EF92FF926B017C010E949F024B
:1005A0004B015C01C114D104E104F104F1F00E949B
:1005B0009F02DC01CB0188199909AA09BB09883E71
:1005C0009340A105B10570F321E0C21AD108E108FA
:1005D000F10888EE880E83E0981EA11CB11CC1149E
:1005E000D104E104F10419F7DDCFFF90EF90DF9023
:1005F000CF90BF90AF909F908F9008950895DC01A9
:10060000E0E0615038F08D91E827F0E0E859FF4FC5
:10061000E491F7CF8E2F0895FC0190810180F28143
:10062000E02DF8948181892B81832281892F809507
:1006300028232283A7E0B0E01197F1F721818223DC
:100640008183A3E2B0E01197F1F780817894EFEC19
:10065000F0E03197F1F7982381E009F480E0089504
:10066000EF92FF920F931F93CF93DF937C0108E0EB
:1006700010E0C0E0D1E0C7010E940C038111CD2B36
:10068000DD0F01501109B9F78C2FDF91CF911F9128
:100690000F91FF90EF900895FC0190810180F2810D
:1006A000E02D892F809560FF12C0F894228182236B
:1006B00082838181892B8183A3E2B0E01197F1F7D6
:1006C0008281982B9283789487ED90E011C0F89402
:1006D0002281822382838181892B8183AFEFB0E0E5
:1006E0001197F1F78281982B928378948FE090E0B4
:1006F0000197F1F70895CF92DF92EF92FF920F9357
:100700001F93CF93DF931F92CDB7DEB76C01E62E18
:1007100008E010E0FF24F39461E08F2D8E2109F4AE
:1007200060E0C60149830E944C03FF0C015011098F
:1007300049810115110581F7411115C0F894D601C1
:100740001196ED91FC91129791818C91809589235E
:1007500081831196ED91FC91129792818C918095F5
:100760008923828378940F90DF91CF911F910F910D
:10077000FF90EF90DF90CF900895CF92DF92EF92AD
:10078000FF920F931F93CF93DF931F92CDB7DEB7E6
:100790008C01F62E40E065E579830E947B03CF2C27
:1007A0007981D72E760188E0E80EF11CF60161917F
:1007B0006F0140E0C8010E947B03CE14DF04B1F753
:1007C0000F90DF91CF911F910F91FF90EF90DF90ED
:1007D000CF900895FC0190810180F281E02DF89482
:1007E0008181292F20958223818378948DE743E0AE
:1007F00050E0815021F1DA011197F1F7308139236E
:10080000C1F3F8948281822382838181892B818341
:100810007894ABE7B7E01197F1F7F894818128233A
:100820002183A3E1B1E01197F1F78081982381E062
:1008300009F080E07894E3E6F6E03197F1F7089567
:10084000EF92FF920F931F93CF93DF937C018B0165
:10085000C9E0D2E08D819E810E94EA03B7018D81BB
:100860009E810E94BD0340E06EEB8D819E810E94BF
:100870007B038D819E810E943003F80180838D81EE
:100880009E810E943003F80181838D819E810E94A8
:100890003003F80182838D819E810E943003F8012C
:1008A00083838D819E810E943003F80184838D8132
:1008B0009E810E943003F80185838D819E810E9474
:1008C0003003F80186838D819E810E943003F801F8
:1008D00087838D819E810E943003F80180878D81FE
:1008E0009E81DF91CF911F910F91FF90EF900C941B
:1008F000EA03CF93DF93CDB7DEB729970FB6F8940D
:10090000DEBF0FBECDBFFC012081203109F1BE0149
:100910006F5F7F4F0E94200468E0CE0101960E9425
:10092000FF029985891310C08D818F3359F018F417
:100930008F3171F009C08F3519F08F3739F004C04D
:100940008BE007C08AE005C080E003C08CE001C0F6
:1009500089E029960FB6F894DEBF0FBECDBFDF91B8
:10096000CF910895009769F0FC0101900020E9F70C
:100970003197AF01481B590BBC018AE691E00C94FA
:100980000D0180E090E008958F929F92AF92BF9208
:100990000F931F93CF93DF93CDB7DEB7A1970FB619
:1009A000F894DEBF0FBECDBF19A2423008F44AE072
:1009B0008E010F5D1F4F842E912CA12CB12CA5010F
:1009C00094010E94950CE62FB901CA01015011094A
:1009D000EA3014F4E05D01C0E95CD801EC93232B0C
:1009E000242B252B61F7C8010E94B204A1960FB6F3
:1009F000F894DEBF0FBECDBFDF91CF911F910F9155
:100A0000BF90AF909F908F90089561E08AE00E9420
:100A1000170286E191E00E94B20480E291E00E9418
:100A2000B20481E0809369010895AF92BF92CF92A2
:100A3000DF92EF92FF920F931F93CF93DF931F925A
:100A4000CDB7DEB75C01D62EE72EFC01858581117E
:100A500005C0C5010E94EA03811106C0F501138695
:100A60001586148680E065C040E060EFC5010E94F5
:100A70007B0301E0F12CC12C11E0C5010E940C03A5
:100A8000682FC50169830E940C036981613019F4E4
:100A90008130B9F433C04F2D50E068131BC0F5010D
:100AA0008385181730F4E40FF51F8381802349F400
:100AB00002C0181731F060E0193058F4F5011487BE
:100AC00008C0F501EF0DF11D8381802B838361E068
:100AD00009C0C12EF501E40FF51F9381802F809589
:100AE00089238383C5010E944C031F5F000F11F40B
:100AF000F39401E0F7E0FF1508F0BFCF113408F4DC
:100B0000ADCFF501C386C11002C081E08587F50134
:100B10008381882309F4A2CFD5011396ED2DFE2DF4
:100B20009501255F3F4F8D918193A217B307D9F7A8
:100B300081E00F90DF91CF911F910F91FF90EF9087
:100B4000DF90CF90BF90AF9008950E94BD0C1F9290
:100B50000F920FB60F9211242F933F934F935F93F1
:100B60006F937F938F939F93AF93BF93EF93FF9375
:100B70008AE691E00E948301FF91EF91BF91AF91CE
:100B80009F918F917F916F915F914F913F912F91A5
:100B90000F900FBE0F901F9018951F920F920FB6D7
:100BA0000F9211242F938F939F93EF93FF93E091D4
:100BB0007A01F0917B018081E0918001F0918101C7
:100BC00082FD12C09081809183018F5F8F7320918D
:100BD0008401821751F0E0918301F0E0E659FE4F65
:100BE000958F8093830101C08081FF91EF919F9148
:100BF0008F912F910F900FBE0F901F9018951F92FD
:100C00000F920FB60F9211242F933F938F939F93C0
:100C1000AF93BF9380915D0190915E01A0915F01C0
:100C2000B091600130915C0123E0230F2D3720F457
:100C30000196A11DB11D05C026E8230F0296A11D36
:100C4000B11D20935C0180935D0190935E01A093A0
:100C50005F01B09360018091610190916201A09168
:100C60006301B09164010196A11DB11D80936101E2
:100C700090936201A0936301B0936401BF91AF911F
:100C80009F918F913F912F910F900FBE0F901F90CA
:100C900018951F920F920FB60F9211242F933F9326
:100CA0004F935F936F937F938F939F93AF93BF9374
:100CB000EF93FF93E0910201F09103010995FF91F9
:100CC000EF91BF91AF919F918F917F916F915F91C4
:100CD0004F913F912F910F900FBE0F901F9018953D
:100CE0001F920F920FB60F9211242F933F934F93A1
:100CF0005F936F937F938F939F93AF93BF93EF9384
:100D0000FF93E0910001F09101010995FF91EF91AE
:100D1000BF91AF919F918F917F916F915F914F9113
:100D20003F912F910F900FBE0F901F90189510922A
:100D30006D0110926C0188EE93E0A0E0B0E080932A
:100D40006E0190936F01A0937001B093710188E0E0
:100D500091E090936B0180936A0185EC90E0909311
:100D600077018093760184EC90E0909379018093F1
:100D7000780180EC90E090937B0180937A0181EC84
:100D800090E090937D0180937C0182EC90E09093C1
:100D90007F0180937E0186EC90E0909381018093A7
:100DA00080011092830110928401109285011092AB
:100DB000860160E089E00E946302E7EBF1E0E491E4
:100DC000E0931C02E3EAF1E0E491F0E0EE0FFF1F94
:100DD000E057FE4F8591949190931E0280931D02DF
:100DE000109227021092290210922802E7E2F2E004
:100DF000129282E0EF31F807D9F78CE091E09093FE
:100E00001B0280931A028CE192E090930F02809370
:100E10000E0210920D021092090289E080930A02DC
:100E200081E080930B0280930C0283E090E090932A
:100E30000802809307020895CF93DF93CDB7DEB702
:100E400065970FB6F894DEBF0FBECDBF789484B51A
:100E5000826084BD84B5816084BD85B5826085BDB6
:100E600085B5816085BD80916E00816080936E0044
:100E70001092810080918100826080938100809136
:100E800081008160809381008091800081608093E7
:100E900080008091B10084608093B1008091B000A7
:100EA00081608093B00080917A00846080937A00A2
:100EB00080917A00826080937A0080917A008160CC
:100EC00080937A0080917A00806880937A001092F3
:100ED000C100E0917A01F0917B0182E08083E09192
:100EE0007601F09177011082E0917801F09179011B
:100EF0008FEC808310928201E0917E01F0917F015E
:100F000086E08083E0917C01F0917D0180818061A9
:100F10008083E0917C01F0917D01808188608083F5
:100F2000E0917C01F0917D01808180688083E09177
:100F30007C01F0917D0180818F7D8083E0910E02A4
:100F4000F0910F02138615861486DF011B963396E7
:100F50001E92AE17BF07E1F710920D0211E0BE011D
:100F6000665F7F4F80910E0290910F020E941505DF
:100F7000882309F451C067E0CE010A960E94FF025F
:100F800099898913ECCF80910902811127C0809142
:100F90000E0290910F020E94EA03BE01665F7F4F2E
:100FA00080910E0290910F020E94BD0340E064EB1D
:100FB00080910E0290910F020E947B0380910E029D
:100FC00090910F020E940C03082F80910E029091C5
:100FD0000F020E94EA03002309F468C2BE016F5F9A
:100FE0007F4FCE010A960E94200400910A02CE0192
:100FF0000A960E947904801718F480910A0204C0AE
:10100000CE010A960E94790480930A0280910D0213
:101010008F5F80930D02A3CF61E081E10E946302A4
:1010200085E095E090930101809300018091690033
:10103000836080936900E89A61E08AE00E9463021D
:1010400003E010E080910E0290910F020E94EA03EB
:1010500040E06CEC80910E0290910F020E947B03A5
:101060004091090264E480910E0290910F020E9467
:101070007B0380910B028823E9F080910A028A3079
:1010800049F08B3061F0893079F46EE570E080E0F2
:1010900090E00EC06CEB70E080E090E009C067E784
:1010A00071E080E090E004C06EEE72E080E090E0DD
:1010B0000E94C402E0910E02F0910F021386158681
:1010C0001486DF011B96CF0103961E92A817B9075D
:1010D000E1F7BE01665F7F4FCF010E9415058823AF
:1010E00029F067E0CE010A960E94FF02BE016F5F01
:1010F0007F4FCE010A960E94200468E0CE0101963F
:101100000E94FF029985891388C02A8130E0322F1E
:1011100022278981B901682B8A858232B1F1883210
:10112000A1F1803109F080C0F88475956795072E8C
:10113000000C880B990B0E946E0B20E030E040E819
:101140005EE30E94590A4B015C018F2D90E02F81D4
:10115000821B9109BC01990F880B990B0E946E0BA1
:101160002B013C016F2D70E080E090E00E946C0B41
:101170009B01AC01C301B2010E94CB0A9B01AC01EF
:10118000C501B4010E945A0A43C08D818F3381F199
:1011900098F48F3109F048C033E0759567953A951A
:1011A000E1F7072E000C880B990B0E946E0B20E0D4
:1011B00030E040E05FE32AC08F3569F08F37A1F55A
:1011C000072E000C880B990B0E946E0B20E030E07C
:1011D00040E85DE31BC075956795072E000C880BF2
:1011E000990B0E946E0B20E030E040E05EE30EC001
:1011F0007595679575956795072E000C880B990B6B
:101200000E946E0B20E030E040E85EE30E94230C79
:10121000C62EB72EA82E992E07C0812CD12C8EEF6A
:10122000E82E92ECF92E04C08C2CDB2CEA2CF92C45
:10123000882D9D2DD7018093650190936601A09321
:101240006701B093680120E030E040EA50E4682D87
:101250007D2DC7010E94C60A87FF0DC020E030E047
:101260004EEF52EC682D7D2DC7010E94C60A8823DF
:10127000B9F061E012C020E030E040EA50E4682DAF
:101280007D2DC7010E941E0C181654F48091070290
:1012900090910802892B21F460E081E10E941702FD
:1012A0008091070290910802009729F41093080298
:1012B0000093070205C001979093080280930702EC
:1012C00020E030E04EEF52EC682D7D2DC7010E94EA
:1012D000C60A882309F4D7C020E030E04AEA52E485
:1012E000682D7D2DC7010E94C60A882309F4CBC052
:1012F00083E291E00E94B204409065015090660143
:101300006090670170906801A3019201C301B2016E
:101310000E94900C882319F08FE491E01FC0D30144
:10132000C201BF778A8B9B8BAC8BBD8B2FEF3FEFBE
:101330004FE75FE7BC01CD010E94900C811111C005
:101340002FEF3FEF4FE75FE76A897B898C899D89A3
:101350000E94C60A18162CF483E591E00E94B2049C
:101360008EC02FEF3FEF4FE75FE4C301B2010E9451
:101370001E0C18161CF487E591E0F0CF2FEF3FEF1D
:101380004FE75FECC301B2010E94C60A87FDF3CFAD
:1013900020E030E0A901C301B2010E94C60A87FF24
:1013A0000FC0E0916A01F0916B010190F081E02D96
:1013B0006DE28AE691E0099577FA709477F8709477
:1013C0002AE037ED43EA5BE3C301B2010E945A0A07
:1013D0006A8B7B8B8C8B9D8B0E943D0B2B013C0180
:1013E0000E946C0B9B01AC016A897B898C899D8969
:1013F0000E94590A6A8B7B8B8C8B9D8B4AE0C301C0
:10140000B2010E94C404E0916A01F0916B01019065
:10141000F081E02D6EE28AE691E0099520E030E06F
:1014200040E251E46A897B898C899D890E94230C62
:101430006A8B7B8B8C8B9D8B0E943D0B2B01612CCF
:10144000712C4AE0C301B2010E94C404C301B2017D
:101450000E946C0B9B01AC016A897B898C899D89F8
:101460000E94590A20E030E040E251E40E94230C3F
:101470000E943D0B80E090E04AE00E94C40480E2BC
:1014800091E00E94B20480916901882361F060EDCF
:1014900077E080E090E00E94C40260E08AE00E9471
:1014A0001702109269010E940D02CCCD109309021F
:1014B00095CD5058BB27AA270E94710A0C94E40BC3
:1014C0000E94D60B38F00E94DD0B20F039F49F3FCC
:1014D00019F426F40C94D30B0EF4E095E7FB0C946E
:1014E000CD0BE92F0E94F50B58F3BA17620773076B
:1014F0008407950720F079F4A6F50C94170C0EF4E8
:10150000E0950B2EBA2FA02D0B01B90190010C0113
:10151000CA01A0011124FF27591B99F0593F50F42B
:10152000503E68F11A16F040A22F232F342F442783
:10153000585FF3CF469537952795A795F04053957B
:10154000C9F77EF41F16BA0B620B730B840BBAF04B
:101550009150A1F0FF0FBB1F661F771F881FC2F7B6
:101560000EC0BA0F621F731F841F48F487957795CA
:101570006795B795F7959E3F08F0B0CF9395880F84
:1015800008F09927EE0F9795879508950E94A90B6B
:1015900008F481E008950E94DF0A0C94E40B0E9495
:1015A000DD0B58F00E94D60B40F029F45F3F29F084
:1015B0000C94CD0B51110C94180C0C94D30B0E946D
:1015C000F50B68F39923B1F3552391F3951B550B54
:1015D000BB27AA2762177307840738F09F5F5F4F06
:1015E000220F331F441FAA1FA9F335D00E2E3AF045
:1015F000E0E832D091505040E695001CCAF72BD05D
:10160000FE2F29D0660F771F881FBB1F26173707AD
:101610004807AB07B0E809F0BB0B802DBF01FF27DF
:1016200093585F4F3AF09E3F510578F00C94CD0BE4
:101630000C94180C5F3FE4F3983ED4F386957795AD
:101640006795B795F7959F5FC9F7880F911D969598
:10165000879597F90895E1E0660F771F881FBB1FF4
:10166000621773078407BA0720F0621B730B840BA1
:10167000BA0BEE1F88F7E09508950E94FD0B88F0E5
:101680009F5798F0B92F9927B751B0F0E1F0660F46
:10169000771F881F991F1AF0BA95C9F714C0B13087
:1016A00091F00E94170CB1E008950C94170C672F6D
:1016B000782F8827B85F39F0B93FCCF386957795B6
:1016C0006795B395D9F73EF490958095709561959F
:1016D0007F4F8F4F9F4F0895E89409C097FB3EF4CA
:1016E00090958095709561957F4F8F4F9F4F99236F
:1016F000A9F0F92F96E9BB279395F69587957795ED
:101700006795B795F111F8CFFAF4BB0F11F460FFAC
:101710001BC06F5F7F4F8F4F9F4F16C0882311F004
:1017200096E911C0772321F09EE8872F762F05C018
:10173000662371F096E8862F70E060E02AF09A95B3
:10174000660F771F881FDAF7880F9695879597F9A8
:101750000895990F0008550FAA0BE0E8FEEF161642
:101760001706E807F907C0F012161306E407F50795
:1017700098F0621B730B840B950B39F40A2661F009
:10178000232B242B252B21F408950A2609F4A140AC
:10179000A6958FEF811D811D089597F99F6780E8B9
:1017A00070E060E008959FEF80EC089500240A94B3
:1017B0001616170618060906089500240A9412162C
:1017C0001306140605060895092E0394000C11F45F
:1017D000882352F0BB0F40F4BF2B11F460FF04C00C
:1017E0006F5F7F4F8F4F9F4F089557FD9058440F65
:1017F000551F59F05F3F71F04795880F97FB991F70
:1018000061F09F3F79F0879508951216130614062C
:10181000551FF2CF4695F1DF08C0161617061806B9
:10182000991FF1CF86957105610508940895E89494
:10183000BB2766277727CB0197F908950E94A90B4C
:1018400008F48FEF08950E94360C0C94E40B0E946C
:10185000D60B38F00E94DD0B20F0952311F00C948C
:10186000CD0B0C94D30B11240C94180C0E94F50B87
:1018700070F3959FC1F3950F50E0551F629FF001E3
:10188000729FBB27F00DB11D639FAA27F00DB11DFC
:10189000AA1F649F6627B00DA11D661F829F222785
:1018A000B00DA11D621F739FB00DA11D621F839F0C
:1018B000A00D611D221F749F3327A00D611D231FE2
:1018C000849F600D211D822F762F6A2F11249F5730
:1018D00050409AF0F1F088234AF0EE0FFF1FBB1F33
:1018E000661F771F881F91505040A9F79E3F5105F2
:1018F00080F00C94CD0B0C94180C5F3FE4F3983EF1
:10190000D4F3869577956795B795F795E7959F5F9B
:10191000C1F7FE2B880F911D9695879597F908952D
:101920000E94A90B880B990B0895A1E21A2EAA1BFD
:10193000BB1BFD010DC0AA1FBB1FEE1FFF1FA2177F
:10194000B307E407F50720F0A21BB30BE40BF50B7C
:10195000661F771F881F991F1A9469F76095709505
:10196000809590959B01AC01BD01CF010895EE0FCC
:10197000FF1F0590F491E02D099481E090E0F89428
:081980000C94C20CF894FFCF97
:10198800FE02FE0200000000A4010D013C01EB0173
:101998006D014B015F014D61696E206D656E7500CB
:1019A8000D0A0054656D7065726174757265206604
:1019B8006F722074686520646576696365203120DC
:1019C80028696E6465782030292069733A20006E92
:0C19D800616E00696E66006F76660000AC
:00000001FF
