:100000000C94E2000C940A010C940A010C940A016D
:100010000C940A010C940A010C940A010C940A0134
:100020000C940A010C940A010C940A010C940A0124
:100030000C940A010C940A010C940A010C940A0114
:100040000C948F040C940A010C94DB030C94B503FC
:100050000C940A010C940A010C940A010C940A01F4
:100060000C940A010C940A01005EBCE2613FDD833E
:10007000C29C7E20A3FD1F419DC3217FFCA2401E88
:100080005F01E3BD3E6082DC237D9FC1421CFEA078
:10009000E1BF5D0380DE3C62BEE0025CDF81633D68
:1000A0007C22C09E1D43A1FF4618FAA427799BC558
:1000B00084DA3866E5BB5907DB856739BAE4065848
:1000C0001947A5FB7826C49A653BD987045AB8E638
:1000D000A7F91B45C6987A24F8A6441A99C7257B28
:1000E0003A6486D85B05E7B98CD2306EEDB3510F18
:1000F0004E10F2AC2F7193CD114FADF3702ECC9208
:10010000D38D6F31B2EC0E50AFF1134DCE90722CF7
:100110006D33D18F0C52B0EE326C8ED0530DEFB1E7
:10012000F0AE4C1291CF2D73CA947628ABF51749D7
:100130000856B4EA6937D58B5709EBB536688AD4C7
:1001400095CB2977F4AA4816E9B7550B88D6346AB7
:100150002B7597C94A14F6A8742AC896154BA9F7A7
:10016000B6E80A54D7896B35000000002400270048
:100170002A0000000000250028002B0000000008D5
:10018000000201000003040700000000000000005E
:1001900000000000230026002900040404040404D5
:1001A0000404020202020202030303030303010226
:1001B00004081020408001020408102001020408F5
:1001C0001020420B11241FBECFEFD8E0DEBFCDBF01
:1001D00011E0A0E0B1E0E0ECFCE102C005900D927E
:1001E000AC35B107D9F722E0ACE5B1E001C01D9212
:1001F000A134B207E1F710E0C2EED0E004C02197CD
:10020000FE010E94530EC13ED107C9F70E94BF08EC
:100210000C945E0E0C940000CF92DF92EF92FF924E
:100220000F931F93CF93DF936C017A018B01C0E092
:10023000D0E0CE15DF0589F0D8016D918D01D60192
:10024000ED91FC910190F081E02DC6010995892B7B
:1002500011F47E0102C02196ECCFC701DF91CF914E
:100260001F910F91FF90EF90DF90CF900895FC01C8
:10027000538D448D252F30E0842F90E0821B930B0B
:10028000541710F0CF96089501970895FC01918DB1
:10029000828D981761F0828DDF01A80FB11D5D96E8
:1002A0008C91928D9F5F9F73928F90E008958FEF56
:1002B0009FEF0895FC01918D828D981731F0828D0A
:1002C000E80FF11D858D90E008958FEF9FEF089561
:1002D000FC01918D228D892F90E0805C9F4F821BC5
:1002E00091098F739927089589E691E00E9468012A
:1002F00021E0892B09F420E0822F0895FC01848DF0
:10030000DF01A80FB11DA35ABF4F2C91848D90E03F
:1003100001968F739927848FA689B7892C93A0891A
:10032000B1898C9180648C93938D848D981306C0D1
:100330000288F389E02D80818F7D80830895EF927C
:10034000FF920F931F93CF93DF93EC0181E0888F8F
:100350009B8D8C8D981305C0E889F989808185FD76
:1003600024C0F62E0B8D10E00F5F1F4F0F73112767
:10037000E02E8C8DE8120CC00FB607FCFACFE8898E
:10038000F989808185FFF5CFCE010E947E01F1CFF2
:100390008B8DFE01E80FF11DE35AFF4FF0820B8FAA
:1003A000EA89FB898081806207C0EE89FF896083CA
:1003B000E889F98980818064808381E090E0DF9121
:1003C000CF911F910F91FF90EF900895CF93DF93FE
:1003D000EC01888D8823C9F0EA89FB89808185FD3D
:1003E00005C0A889B9898C9186FD0FC00FB607FC9E
:1003F000F5CF808185FFF2CFA889B9898C9185FFDF
:10040000EDCFCE010E947E01E7CFDF91CF9108951D
:1004100080E090E0892B29F00E94740181110C94F6
:1004200000000895833081F028F4813099F0823003
:10043000A1F008958730A9F08830B9F08430D1F464
:10044000809180008F7D03C0809180008F778093A2
:100450008000089584B58F7702C084B58F7D84BDF8
:1004600008958091B0008F7703C08091B0008F7D98
:100470008093B0000895CF93DF93282F30E0F901E7
:10048000E458FE4F8491F901E255FE4FD491F901F1
:10049000E656FE4FC491CC2391F081110E941202C6
:1004A000EC2FF0E0EE0FFF1FE057FE4FA591B49147
:1004B000EC91ED2381E090E021F480E002C080E047
:1004C00090E0DF91CF9108953FB7F894809161015A
:1004D00090916201A0916301B091640126B5A89B3F
:1004E00005C02F3F19F00196A11DB11D3FBFBA2FC6
:1004F000A92F982F8827820F911DA11DB11DBC0126
:10050000CD0142E0660F771F881F991F4A95D1F7EA
:1005100008958F929F92AF92BF92CF92DF92EF9207
:10052000FF926B017C010E9464024B015C01C114CB
:10053000D104E104F104F1F00E946402DC01CB017A
:1005400088199909AA09BB09883E9340A105B105FC
:1005500070F321E0C21AD108E108F10888EE880E94
:1005600083E0981EA11CB11CC114D104E104F10464
:1005700019F7DDCFFF90EF90DF90CF90BF90AF9055
:100580009F908F900895089580E090E008950895D9
:100590000E94590E8F929F92AF92BF92CF92DF929C
:1005A000EF92FF92C0906501D0906601E0906701E4
:1005B000F090680120E030E04EEF52ECC701B60148
:1005C0000E94620C882309F4C7C020E030E04AEAA8
:1005D00052E4C701B6010E94620C882309F4BCC032
:1005E00080E00E943807A7019601C701B6010E946A
:1005F0002C0E882319F080E291E01AC046015701C1
:10060000E894B7F82FEF3FEF4FE75FE7C501B4017C
:100610000E942C0E811116C02FEF3FEF4FE75FE7CE
:10062000C501B4010E94620C181664F484E291E0E2
:10063000FF90EF90DF90CF90BF90AF909F908F9002
:100640000C944A072FEF3FEF4FE75FE4C701B60175
:100650000E94BA0D18161CF488E291E0E9CF2FEF42
:100660003FEF4FE75FECC701B6010E94620C87FDC8
:10067000F3CF20E030E0A901C701B6010E94620C6F
:1006800087FF0FC0E0910802F09109020190F0810C
:10069000E02D6DE288E092E00995F7FAF094F7F822
:1006A000F0942AE037ED43EA5BE3C701B6010E940C
:1006B000F60B4B015C010E94D90C6B017C010E947E
:1006C000080D9B01AC01C501B4010E94F50B4B0163
:1006D0005C014AE0C701B6010E945C07E091080294
:1006E000F09109020190F081E02D6EE288E092E045
:1006F000099520E030E040E251E4C501B4010E94D8
:10070000BF0D4B015C010E94D90C6B01E12CF12C57
:100710004AE0C701B6010E945C07C701B6010E940A
:10072000080D9B01AC01C501B4010E94F50B20E04E
:1007300030E040E251E40E94BF0D0E94D90C80E0FD
:1007400090E04AE0FF90EF90DF90CF90BF90AF90A5
:100750009F908F900C945C07FF90EF90DF90CF906C
:10076000BF90AF909F908F9008951F920F920FB6F9
:100770000F9211242F933F934F935F936F937F9327
:100780008F939F93AF93BF93EF93FF9389E691E08D
:100790000E947E01FF91EF91BF91AF919F918F9148
:1007A0007F916F915F914F913F912F910F900FBE6D
:1007B0000F901F9018951F920F920FB60F92112451
:1007C0002F938F939F93EF93FF93E0917901F09193
:1007D0007A018081E0917F01F091800182FD12C059
:1007E0009081809182018F5F8F73209183018217A6
:1007F00051F0E0918201F0E0E759FE4F958F809330
:10080000820101C08081FF91EF919F918F912F9183
:100810000F900FBE0F901F9018951F93CF93DF93EB
:10082000282F30E0F901E458FE4F8491F901E25598
:10083000FE4FD491F901E656FE4FC491CC23C9F086
:10084000162F81110E941202EC2FF0E0EE0FFF1F15
:10085000EE58FE4FA591B4918FB7F894111105C0D1
:100860009C91ED2FE095E92302C0EC91ED2BEC93E8
:100870008FBFDF91CF911F910895CF93DF93EC014C
:1008800060E08E810E940D0461E08E810E940D0463
:1008900060E08E810E940D048BE891E00197F1F7F2
:1008A000DF91CF910895CF93DF9390E0FC01E25563
:1008B000FE4F2491FC01E656FE4F8491882361F19E
:1008C00090E0880F991FFC01E859FE4FC591D49123
:1008D000FC01EE58FE4FA591B491611109C09FB77C
:1008E000F8948881209582238883EC912E230BC075
:1008F000623061F49FB7F8943881822F809583230A
:100900008883EC912E2B2C939FBF06C08FB7F89451
:10091000E8812E2B28838FBFDF91CF9108951F92FE
:100920000F920FB60F9211242F933F938F939F93A3
:10093000AF93BF9380915D0190915E01A0915F01A3
:10094000B091600130915C0123E0230F2D3720F43A
:100950000196A11DB11D05C026E8230F0296A11D19
:10096000B11D20935C0180935D0190935E01A09383
:100970005F01B09360018091610190916201A0914B
:100980006301B09164010196A11DB11D80936101C5
:1009900090936201A0936301B0936401BF91AF9102
:1009A0009F918F913F912F910F900FBE0F901F90AD
:1009B0001895CF92DF92EF92FF920F931F93CF93F0
:1009C000DF937C016C0187E0C80ED11CC0E0D0E051
:1009D000062F10E0B8010C2E02C0759567950A9499
:1009E000E2F76170F60181916F010E940D0421967A
:1009F000C430D10579F7C701DF91CF911F910F91D5
:100A0000FF90EF90DF90CF900C943D04CF92DF9257
:100A1000EF92FF920F931F93CF93DF93EC01F62E8B
:100A2000642F8C810E940D048D818F3F19F060E04E
:100A30000E940D048F850F2D10E084FF25C06E01EC
:100A400087E0C80ED11CE12CF12CB8010E2C02C09D
:100A5000759567950A94E2F76170F60181916F01CF
:100A60000E940D04FFEFEF1AFF0A88E0E816F10478
:100A700061F7CE01DF91CF911F910F91FF90EF9021
:100A8000DF90CF900C943D04B80184E07595679594
:100A90008A95E1F7CE010E94D9046F2DCE01DF9136
:100AA000CF911F910F91FF90EF90DF90CF900C941A
:100AB000D90441E00E94060581E090E0089540E0FD
:100AC0000C94060561E00E945F058BE39FE10197AE
:100AD000F1F7089588E092E00E9462058CE291E0CF
:100AE0000E944A0785E00E9438078BE391E00C944E
:100AF0004A07DC01E0E0615038F08D91E827F0E032
:100B0000E859FF4FE491F7CF8E2F0895FC019081B3
:100B10000180F281E02DF8948181892B81832281EB
:100B2000892F809528232283A7E0B0E01197F1F761
:100B3000218182238183A3E2B0E01197F1F78081C4
:100B40007894EFECF0E03197F1F7982381E009F425
:100B500080E00895EF92FF920F931F93CF93DF935E
:100B60007C0108E010E0C0E0D1E0C7010E948605EA
:100B70008111CD2BDD0F01501109B9F78C2FDF91B9
:100B8000CF911F910F91FF90EF900895FC019081FC
:100B90000180F281E02D892F809560FF12C0F894CA
:100BA0002281822382838181892B8183A3E2B0E029
:100BB0001197F1F78281982B9283789487ED90E0DA
:100BC00011C0F8942281822382838181892B8183C1
:100BD000AFEFB0E01197F1F78281982B9283789470
:100BE0008FE090E00197F1F70895CF92DF92EF92B6
:100BF000FF920F931F93CF93DF931F92CDB7DEB772
:100C00006C01E62E08E010E0FF24F39461E08F2DE4
:100C10008E2109F460E0C60149830E94C605FF0CDD
:100C20000150110949810115110581F7411115C0C4
:100C3000F894D6011196ED91FC91129791818C91C7
:100C40008095892381831196ED91FC911297928171
:100C50008C9180958923828378940F90DF91CF9136
:100C60001F910F91FF90EF90DF90CF900895CF925A
:100C7000DF92EF92FF920F931F93CF93DF931F9218
:100C8000CDB7DEB78C01F62E40E065E579830E9492
:100C9000F505CF2C7981D72E760188E0E80EF11C7E
:100CA000F60161916F0140E0C8010E94F505CE1484
:100CB000DF04B1F70F90DF91CF911F910F91FF905B
:100CC000EF90DF90CF900895FC0190810180F28138
:100CD000E02DF8948181292F2095822381837894B7
:100CE0008DE743E050E0815021F1DA011197F1F7EF
:100CF00030813923C1F3F8948281822382838181F8
:100D0000892B81837894ABE7B7E01197F1F7F894DA
:100D1000818128232183A3E1B1E01197F1F780813C
:100D2000982381E009F080E07894E3E6F6E03197DB
:100D3000F1F70895EF92FF920F931F93CF93DF93F4
:100D4000EC01623018F08F8588608F876B8B1C8A6E
:100D500080E48D8B80E18E8B80E58F8B61E08C81D0
:100D60000E9453048D818F3F19F061E00E9453046B
:100D700061E08E810E9453047E0187E0E80EF11C41
:100D800000E010E08F8584FD03C084E090E002C0A5
:100D900088E090E0081719074CF461E0F7018191B1
:100DA0007F010E9453040F5F1F4FECCF8BE39DE048
:100DB0000197F1F760E08C810E940D0460E08E8164
:100DC0000E940D048D818F3F19F060E00E940D0498
:100DD0006F8564FD1DC063E0CE010E94D9040BE461
:100DE00016E4C8010197F1F763E0CE010E94D9042F
:100DF000C8010197F1F763E0CE010E94D90483E5B1
:100E000092E00197F1F762E0CE010E94D90416C08A
:100E10006062CE010E945F058BE496E40197F1F7D2
:100E20006F856062CE010E945F0583E592E00197C5
:100E3000F1F76F856062CE010E945F056F85606289
:100E4000CE010E945F0584E0888B6CE0CE010E9499
:100E50005F05CE010E94620582E0898B66E0CE01CB
:100E6000DF91CF911F910F91FF90EF900C945F0550
:100E7000E0911B02E23010F4E15001C0E1E0F0E04B
:100E8000E85FFD4F9489682F690F606888E092E001
:100E90000C945F05009769F0FC0101900020E9F7D0
:100EA0003197AF01481B590BBC0188E092E00C94CC
:100EB0000C0180E090E008958F929F92AF92BF92D4
:100EC0000F931F93CF93DF93CDB7DEB7A1970FB6E4
:100ED000F894DEBF0FBECDBF19A2423008F44AE03D
:100EE0008E010F5D1F4F842E912CA12CB12CA501DA
:100EF00094010E94310EE62FB901CA010150110977
:100F0000EA3014F4E05D01C0E95CD801EC93232BD6
:100F1000242B252B61F7C8010E944A07A1960FB622
:100F2000F894DEBF0FBECDBFDF91CF911F910F911F
:100F3000BF90AF909F908F900895AF92BF92CF9245
:100F4000DF92EF92FF920F931F93CF93DF931F9245
:100F5000CDB7DEB75C01D62EE72EFC018585811169
:100F600005C0C5010E946406811106C0F501138603
:100F70001586148680E065C040E060EFC5010E94E0
:100F8000F50501E0F12CC12C11E0C5010E94860598
:100F9000682FC50169830E9486056981613019F453
:100FA0008130B9F433C04F2D50E068131BC0F501F8
:100FB0008385181730F4E40FF51F8381802349F4EB
:100FC00002C0181731F060E0193058F4F5011487A9
:100FD00008C0F501EF0DF11D8381802B838361E053
:100FE00009C0C12EF501E40FF51F9381802F809574
:100FF00089238383C5010E94C6051F5F000F11F47A
:10100000F39401E0F7E0FF1508F0BFCF113408F4C6
:10101000ADCFF501C386C11002C081E08587F5011F
:101020008381882309F4A2CFD5011396ED2DFE2DDF
:101030009501255F3F4F8D918193A217B307D9F793
:1010400081E00F90DF91CF911F910F91FF90EF9072
:10105000DF90CF90BF90AF900895EF92FF920F93E3
:101060001F93CF93DF937C018B01C0E2D2E08D818F
:101070009E810E946406B7018D819E810E94370681
:1010800040E06EEB8D819E810E94F5058D819E81F1
:101090000E94AA05F80180838D819E810E94AA0585
:1010A000F80181838D819E810E94AA05F8018283C7
:1010B0008D819E810E94AA05F80183838D819E8186
:1010C0000E94AA05F80184838D819E810E94AA0551
:1010D000F80185838D819E810E94AA05F80186838F
:1010E0008D819E810E94AA05F80187838D819E8152
:1010F0000E94AA05F80180878D819E81DF91CF91A2
:101100001F910F91FF90EF900C946406CF93DF93A3
:10111000CDB7DEB729970FB6F894DEBF0FBECDBFAF
:10112000FC012081203109F1BE016F5F7F4F0E94D9
:101130002D0868E0CE0101960E94790599858913F2
:1011400010C08D818F3359F018F48F3171F009C0C0
:101150008F3519F08F3739F004C08BE007C08AE073
:1011600005C080E003C08CE001C089E029960FB67D
:10117000F894DEBF0FBECDBFDF91CF910895CF931E
:10118000DF93CDB7DEB761970FB6F894DEBF0FBE21
:10119000CDBF789484B5826084BD84B5816084BD00
:1011A00085B5826085BD85B5816085BD80916E0005
:1011B000816080936E001092810080918100826036
:1011C0008093810080918100816080938100809173
:1011D00080008160809380008091B1008460809362
:1011E000B1008091B00081608093B00080917A005E
:1011F000846080937A0080917A00826080937A0084
:1012000080917A00816080937A0080917A00806872
:1012100080937A001092C100E0917901F0917A01F7
:1012200082E08083E0917501F09176011082E09177
:101230007701F09178018FEC808310928101E09129
:101240007D01F0917E0186E08083E0917B01F09149
:101250007C01808180618083E0917B01F0917C0141
:10126000808188608083E0917B01F0917C018081A6
:1012700080688083E0917B01F0917C0180818F7D8B
:101280008083E0912502F09126021386158614864C
:10129000DF011B9633961E92AE17BF07E1F710923F
:1012A000240211E0BE01665F7F4F8091250290917C
:1012B00026020E949D07882309F451C067E0CE01F1
:1012C0000A960E94790599898913ECCF80912002B2
:1012D000811127C080912502909126020E94640608
:1012E000BE01665F7F4F80912502909126020E9489
:1012F000370640E064EB80912502909126020E941F
:10130000F50580912502909126020E948605082FFE
:1013100080912502909126020E946406002309F420
:10132000AEC1BE016F5F7F4FCE010A960E942D08AD
:1013300000912102CE010A960E948608801718F4B7
:101340008091210204C0CE010A960E9486088093F3
:101350002102809124028F5F80932402A3CF61E059
:1013600081E10E94530460E086E00E94530460E043
:1013700087E00E94530460E088E00E94530462E02A
:1013800088E092E00E949A068CE291E00E944A076F
:1013900085E00E9438078BE391E00E944A0703E052
:1013A00010E080912502909126020E94640640E0A0
:1013B0006CEC80912502909126020E94F5054091E7
:1013C000200264E480912502909126020E94F50596
:1013D000809122028823E9F0809121028A3049F02D
:1013E0008B3061F0893079F46EE570E080E090E058
:1013F0000EC06CEB70E080E090E009C067E771E040
:1014000080E090E004C06EEE72E080E090E00E9428
:101410008902E0912502F091260213861586148632
:10142000DF011B96CF0103961E92A817B907E1F7BB
:10143000BE01665F7F4FCF010E949D07882329F080
:1014400067E0CE010A960E947905BE016F5F7F4F6B
:10145000CE010A960E942D0868E0CE0101960E94F6
:1014600079059985891388C02A8130E0322F222797
:101470008981B901682B8A858232B1F18832A1F164
:10148000803109F080C0F88475956795072E000CAF
:10149000880B990B0E940A0D20E030E040E85EE3E3
:1014A0000E94F50B4B015C018F2D90E02F81821B78
:1014B0009109BC01990F880B990B0E940A0D2B0111
:1014C0003C016F2D70E080E090E00E94080D9B01D0
:1014D000AC01C301B2010E94670C9B01AC01C501C4
:1014E000B4010E94F60B43C08D818F3381F198F4D3
:1014F0008F3109F048C033E0759567953A95E1F76B
:10150000072E000C880B990B0E940A0D20E030E09A
:1015100040E05FE32AC08F3569F08F37A1F5072ED1
:10152000000C880B990B0E940A0D20E030E040E887
:101530005DE31BC075956795072E000C880B990B12
:101540000E940A0D20E030E040E05EE30EC0759599
:10155000679575956795072E000C880B990B0E946F
:101560000A0D20E030E040E85EE30E94BF0DF62E59
:10157000E72ED82EC92E07C0812C912C8EEFA82ED5
:1015800092ECB92E04C08F2C9E2CAD2CBC2CC40127
:10159000D5018093650190936601A0936701B09394
:1015A000680120E030E040EA50E4B401C5010E9447
:1015B000620C87FF0CC020E030E04EEF52ECB4012B
:1015C000C5010E94620C8823B1F061E011C020E0E7
:1015D00030E040EA50E4B401C5010E94BA0D18168B
:1015E00054F48091060290910702892B21F460E067
:1015F00081E10E940D0480910602909107020097FC
:1016000029F4109307020093060205C001979093F6
:101610000702809306020E94CA0286E00E943B02F3
:10162000019739F488E092E00E9462058DE391E031
:1016300017C088E00E943B02019739F488E092E0ED
:101640000E94620587E491E00BC087E00E943B02A4
:10165000019791F488E092E00E94620581E591E0B3
:101660000E944A0760ED77E080E090E00E948902E6
:101670000E946A050E94CA020E94080292CE10933C
:1016800020024FCE10926C0110926B0188EE93E015
:10169000A0E0B0E080936D0190936E01A0936F0184
:1016A000B093700184E091E090936A0180936901A6
:1016B00085EC90E0909376018093750184EC90E046
:1016C000909378018093770180EC90E090937A0179
:1016D0008093790181EC90E090937C0180937B0171
:1016E00082EC90E090937E0180937D0186EC90E007
:1016F0009093800180937F01109282011092830168
:10170000109284011092850160E089E00E945304E8
:10171000E7EBF1E0E491E0933302E3EAF1E0E491F6
:10172000F0E0EE0FFF1FE057FE4F859194919093EC
:1017300035028093340210923E02109240021092C1
:101740003F02EEE3F2E0129282E0E633F807D9F7C7
:1017500087EC92E0909332028093310283E392E02F
:101760009093260280932502109224021092200268
:1017700089E08093210281E08093220280932302FA
:1017800010920B0210920A0286E191E090930902F6
:10179000809308028CE080930C028FEF80930D02FF
:1017A0008BE080930E0285E080930F0284E08093AB
:1017B000100283E08093110282E080931202109263
:1017C0001302109214021092150210921602109237
:1017D000170261E088E092E00E949A0683E090E0C0
:1017E000909307028093060208955058BB27AA27BA
:1017F0000E940D0C0C94800D0E94720D38F00E9416
:10180000790D20F039F49F3F19F426F40C946F0DF4
:101810000EF4E095E7FB0C94690DE92F0E94910D01
:1018200058F3BA17620773078407950720F079F415
:10183000A6F50C94B30D0EF4E0950B2EBA2FA02D47
:101840000B01B90190010C01CA01A0011124FF276D
:10185000591B99F0593F50F4503E68F11A16F04068
:10186000A22F232F342F4427585FF3CF4695379567
:101870002795A795F0405395C9F77EF41F16BA0B2C
:10188000620B730B840BBAF09150A1F0FF0FBB1FDA
:10189000661F771F881FC2F70EC0BA0F621F731F23
:1018A000841F48F4879577956795B795F7959E3F80
:1018B00008F0B0CF9395880F08F09927EE0F979511
:1018C000879508950E94450D08F481E008950E94CF
:1018D0007B0C0C94800D0E94790D58F00E94720DC3
:1018E00040F029F45F3F29F00C94690D51110C94DC
:1018F000B40D0C946F0D0E94910D68F39923B1F310
:10190000552391F3951B550BBB27AA276217730725
:10191000840738F09F5F5F4F220F331F441FAA1FB9
:10192000A9F335D00E2E3AF0E0E832D09150504075
:10193000E695001CCAF72BD0FE2F29D0660F771F23
:10194000881FBB1F261737074807AB07B0E809F009
:10195000BB0B802DBF01FF2793585F4F3AF09E3F8E
:10196000510578F00C94690D0C94B40D5F3FE4F3CD
:10197000983ED4F3869577956795B795F7959F5FD1
:10198000C9F7880F911D9695879597F90895E1E01D
:10199000660F771F881FBB1F621773078407BA077C
:1019A00020F0621B730B840BBA0BEE1F88F7E095D7
:1019B00008950E94990D88F09F5798F0B92F9927A4
:1019C000B751B0F0E1F0660F771F881F991F1AF02A
:1019D000BA95C9F714C0B13091F00E94B30DB1E0CF
:1019E00008950C94B30D672F782F8827B85F39F0CE
:1019F000B93FCCF3869577956795B395D9F73EF4C3
:101A000090958095709561957F4F8F4F9F4F08956A
:101A1000E89409C097FB3EF4909580957095619588
:101A20007F4F8F4F9F4F9923A9F0F92F96E9BB273E
:101A30009395F695879577956795B795F111F8CFBA
:101A4000FAF4BB0F11F460FF1BC06F5F7F4F8F4F25
:101A50009F4F16C0882311F096E911C0772321F01B
:101A60009EE8872F762F05C0662371F096E8862FB3
:101A700070E060E02AF09A95660F771F881FDAF70A
:101A8000880F9695879597F90895990F0008550F37
:101A9000AA0BE0E8FEEF16161706E807F907C0F0F4
:101AA00012161306E407F50798F0621B730B840BFC
:101AB000950B39F40A2661F0232B242B252B21F4D6
:101AC00008950A2609F4A140A6958FEF811D811D76
:101AD000089597F99F6780E870E060E008959FEFB0
:101AE00080EC089500240A941616170618060906B5
:101AF000089500240A941216130614060506089584
:101B0000092E0394000C11F4882352F0BB0F40F40B
:101B1000BF2B11F460FF04C06F5F7F4F8F4F9F4F4B
:101B2000089557FD9058440F551F59F05F3F71F0CD
:101B30004795880F97FB991F61F09F3F79F0879534
:101B40000895121613061406551FF2CF4695F1DFBD
:101B500008C0161617061806991FF1CF869571054D
:101B6000610508940895E894BB2766277727CB0181
:101B700097F908950E94450D08F48FEF08950E948B
:101B8000D20D0C94800D0E94720D38F00E94790DD8
:101B900020F0952311F00C94690D0C946F0D112415
:101BA0000C94B40D0E94910D70F3959FC1F3950FA5
:101BB00050E0551F629FF001729FBB27F00DB11DD1
:101BC000639FAA27F00DB11DAA1F649F6627B00D61
:101BD000A11D661F829F2227B00DA11D621F739F4A
:101BE000B00DA11D621F839FA00D611D221F749F58
:101BF0003327A00D611D231F849F600D211D822F9F
:101C0000762F6A2F11249F5750409AF0F1F08823C5
:101C10004AF0EE0FFF1FBB1F661F771F881F9150F2
:101C20005040A9F79E3F510580F00C94690D0C942B
:101C3000B40D5F3FE4F3983ED4F3869577956795AE
:101C4000B795F795E7959F5FC1F7FE2B880F911D1C
:101C50009695879597F908950E94450D880B990BE5
:101C60000895A1E21A2EAA1BBB1BFD010DC0AA1FDD
:101C7000BB1FEE1FFF1FA217B307E407F50720F0F5
:101C8000A21BB30BE40BF50B661F771F881F991F70
:101C90001A9469F760957095809590959B01AC01B9
:101CA000BD01CF010895EE0FFF1F0590F491E02DC7
:101CB000099481E090E0F8940C945E0EF894FFCFC4
:101CC000000000009F010C013701E6016801460198
:101CD0005A010000000059050C01C402C3020300B0
:101CE0006E616E00696E66006F7666004375727293
:101CF000656E742074656D703A200043004D616913
:101D00006E206D656E75005465737420706C75730C
:0C1D10000054657374206D696E757300DB
:00000001FF
