:100000000C94E2000C940A010C940A010C940A016D
:100010000C940A010C940A010C940A010C940A0134
:100020000C940A010C940A010C940A010C940A0124
:100030000C940A010C940A010C940A010C940A0114
:100040000C9466040C940A010C94B2030C948C0377
:100050000C940A010C940A010C940A010C940A01F4
:100060000C940A010C940A01005EBCE2613FDD833E
:10007000C29C7E20A3FD1F419DC3217FFCA2401E88
:100080005F01E3BD3E6082DC237D9FC1421CFEA078
:10009000E1BF5D0380DE3C62BEE0025CDF81633D68
:1000A0007C22C09E1D43A1FF4618FAA427799BC558
:1000B00084DA3866E5BB5907DB856739BAE4065848
:1000C0001947A5FB7826C49A653BD987045AB8E638
:1000D000A7F91B45C6987A24F8A6441A99C7257B28
:1000E0003A6486D85B05E7B98CD2306EEDB3510F18
:1000F0004E10F2AC2F7193CD114FADF3702ECC9208
:10010000D38D6F31B2EC0E50AFF1134DCE90722CF7
:100110006D33D18F0C52B0EE326C8ED0530DEFB1E7
:10012000F0AE4C1291CF2D73CA947628ABF51749D7
:100130000856B4EA6937D58B5709EBB536688AD4C7
:1001400095CB2977F4AA4816E9B7550B88D6346AB7
:100150002B7597C94A14F6A8742AC896154BA9F7A7
:10016000B6E80A54D7896B35000000002400270048
:100170002A0000000000250028002B0000000008D5
:10018000000201000003040700000000000000005E
:1001900000000000230026002900040404040404D5
:1001A0000404020202020202030303030303010226
:1001B00004081020408001020408102001020408F5
:1001C0001020130B11241FBECFEFD8E0DEBFCDBF30
:1001D00011E0A0E0B1E0E2E6FCE102C005900D9282
:1001E000A834B107D9F722E0A8E4B1E001C01D921C
:1001F000AD32B207E1F710E0C2EED0E004C02197C3
:10020000FE010E94240EC13ED107C9F70E94870853
:100210000C942F0E0C940000CF92DF92EF92FF927D
:100220000F931F93CF93DF936C017A018B01C0E092
:10023000D0E0CE15DF0589F0D8016D918D01D60192
:10024000ED91FC910190F081E02DC6010995892B7B
:1002500011F47E0102C02196ECCFC701DF91CF914E
:100260001F910F91FF90EF90DF90CF900895FC01C8
:10027000538D448D252F30E0842F90E0821B930B0B
:10028000541710F0CF96089501970895FC01918DB1
:10029000828D981761F0828DDF01A80FB11D5D96E8
:1002A0008C91928D9F5F9F73928F90E008958FEF56
:1002B0009FEF0895FC01918D828D981731F0828D0A
:1002C000E80FF11D858D90E008958FEF9FEF089561
:1002D000FC01918D228D892F90E0805C9F4F821BC5
:1002E00091098F739927089585E591E00E9468012F
:1002F00021E0892B09F420E0822F0895FC01848DF0
:10030000DF01A80FB11DA35ABF4F2C91848D90E03F
:1003100001968F739927848FA689B7892C93A0891A
:10032000B1898C9180648C93938D848D981306C0D1
:100330000288F389E02D80818F7D80830895EF927C
:10034000FF920F931F93CF93DF93EC0181E0888F8F
:100350009B8D8C8D981305C0E889F989808185FD76
:1003600024C0F62E0B8D10E00F5F1F4F0F73112767
:10037000E02E8C8DE8120CC00FB607FCFACFE8898E
:10038000F989808185FFF5CFCE010E947E01F1CFF2
:100390008B8DFE01E80FF11DE35AFF4FF0820B8FAA
:1003A000EA89FB898081806207C0EE89FF896083CA
:1003B000E889F98980818064808381E090E0DF9121
:1003C000CF911F910F91FF90EF900895CF93DF93FE
:1003D000EC01888D8823C9F0EA89FB89808185FD3D
:1003E00005C0A889B9898C9186FD0FC00FB607FC9E
:1003F000F5CF808185FFF2CFA889B9898C9185FFDF
:10040000EDCFCE010E947E01E7CFDF91CF9108951D
:1004100080E090E0892B29F00E94740181110C94F6
:1004200000000895833081F028F4813099F0823003
:10043000A1F008958730A9F08830B9F08430D1F464
:10044000809180008F7D03C0809180008F778093A2
:100450008000089584B58F7702C084B58F7D84BDF8
:1004600008958091B0008F7703C08091B0008F7D98
:100470008093B00008953FB7F89480914D0190911A
:100480004E01A0914F01B091500126B5A89B05C027
:100490002F3F19F00196A11DB11D3FBFBA2FA92F03
:1004A000982F8827820F911DA11DB11DBC01CD0180
:1004B00042E0660F771F881F991F4A95D1F708956C
:1004C0008F929F92AF92BF92CF92DF92EF92FF9264
:1004D0006B017C010E943B024B015C01C114D10401
:1004E000E104F104F1F00E943B02DC01CB01881928
:1004F0009909AA09BB09883E9340A105B10570F38B
:1005000021E0C21AD108E108F10888EE880E83E0E4
:10051000981EA11CB11CC114D104E104F10419F707
:10052000DDCFFF90EF90DF90CF90BF90AF909F9086
:100530008F900895089580E090E0089508950E94B6
:100540002A0E8F929F92AF92BF92CF92DF92EF923C
:10055000FF92C0905101D0905201E0905301F09071
:10056000540120E030E04EEF52ECC701B6010E948A
:10057000330C882309F4C7C020E030E04AEA52E493
:10058000C701B6010E94330C882309F4BCC080E087
:100590000E940007A7019601C701B6010E94FD0D48
:1005A000882319F080E291E01AC046015701E894CF
:1005B000B7F82FEF3FEF4FE75FE7C501B4010E94A7
:1005C000FD0D811116C02FEF3FEF4FE75FE7C5012B
:1005D000B4010E94330C181664F484E291E0FF9099
:1005E000EF90DF90CF90BF90AF909F908F900C9442
:1005F00012072FEF3FEF4FE75FE4C701B6010E94FC
:100600008B0D18161CF488E291E0E9CF2FEF3FEF35
:100610004FE75FECC701B6010E94330C87FDF3CFB3
:1006200020E030E0A901C701B6010E94330C87FF2A
:100630000FC0E091F401F091F5010190F081E02DFF
:100640006DE284EF91E00995F7FAF094F7F8F094F1
:100650002AE037ED43EA5BE3C701B6010E94C70B0E
:100660004B015C010E94AA0C6B017C010E94D90C19
:100670009B01AC01C501B4010E94C60B4B015C019A
:100680004AE0C701B6010E942407E091F401F0910D
:10069000F5010190F081E02D6EE284EF91E0099583
:1006A00020E030E040E251E4C501B4010E94900D29
:1006B0004B015C010E94AA0C6B01E12CF12C4AE079
:1006C000C701B6010E942407C701B6010E94D90CD8
:1006D0009B01AC01C501B4010E94C60B20E030E0D3
:1006E00040E251E40E94900D0E94AA0C80E090E04C
:1006F0004AE0FF90EF90DF90CF90BF90AF909F9037
:100700008F900C942407FF90EF90DF90CF90BF90D4
:10071000AF909F908F9008951F920F920FB60F92F7
:1007200011242F933F934F935F936F937F938F93F6
:100730009F93AF93BF93EF93FF9385E591E00E9462
:100740007E01FF91EF91BF91AF919F918F917F912A
:100750006F915F914F913F912F910F900FBE0F902E
:100760001F9018951F920F920FB60F9211242F937E
:100770008F939F93EF93FF93E0916501F091660152
:100780008081E0916B01F0916C0182FD12C090813B
:1007900080916E018F5F8F7320916F01821751F0EE
:1007A000E0916E01F0E0EB5AFE4F958F80936E0161
:1007B00001C08081FF91EF919F918F912F910F90B8
:1007C0000FBE0F901F9018951F93CF93DF93282F84
:1007D00030E0F901E458FE4F8491F901E255FE4FF3
:1007E000D491F901E656FE4FC491CC23C9F0162FDF
:1007F00081110E941202EC2FF0E0EE0FFF1FEE5865
:10080000FE4FA591B4918FB7F894111105C09C913A
:10081000ED2FE095E92302C0EC91ED2BEC938FBF17
:10082000DF91CF911F910895CF93DF93EC0160E0AA
:100830008E810E94E40361E08E810E94E40360E007
:100840008E810E94E4038BE891E00197F1F7DF913C
:10085000CF910895CF93DF9390E0FC01E255FE4FD6
:100860002491FC01E656FE4F8491882361F190E0CB
:10087000880F991FFC01E859FE4FC591D491FC01E6
:10088000EE58FE4FA591B491611109C09FB7F8943D
:100890008881209582238883EC912E230BC06230BF
:1008A00061F49FB7F8943881822F809583238883E1
:1008B000EC912E2B2C939FBF06C08FB7F894E88144
:1008C0002E2B28838FBFDF91CF9108951F920F9217
:1008D0000FB60F9211242F933F938F939F93AF9353
:1008E000BF938091490190914A01A0914B01B09131
:1008F0004C013091480123E0230F2D3720F401965D
:10090000A11DB11D05C026E8230F0296A11DB11D32
:10091000209348018093490190934A01A0934B0191
:10092000B0934C0180914D0190914E01A0914F01E7
:10093000B09150010196A11DB11D80934D0190937E
:100940004E01A0934F01B0935001BF91AF919F9181
:100950008F913F912F910F900FBE0F901F90189580
:10096000CF92DF92EF92FF920F931F93CF93DF937B
:100970007C016C0187E0C80ED11CC0E0D0E0062FDE
:1009800010E0B8010C2E02C0759567950A94E2F745
:100990006170F60181916F010E94E4032196C430D9
:1009A000D10579F7C701DF91CF911F910F91FF908A
:1009B000EF90DF90CF900C941404CF92DF92EF92DF
:1009C000FF920F931F93CF93DF93EC01F62E642FCA
:1009D0008C810E94E4038D818F3F19F060E00E94BA
:1009E000E4038F850F2D10E084FF25C06E0187E0A2
:1009F000C80ED11CE12CF12CB8010E2C02C075954B
:100A000067950A94E2F76170F60181916F010E9487
:100A1000E403FFEFEF1AFF0A88E0E816F10461F73C
:100A2000CE01DF91CF911F910F91FF90EF90DF905A
:100A3000CF900C941404B80184E0759567958A955D
:100A4000E1F7CE010E94B0046F2DCE01DF91CF916E
:100A50001F910F91FF90EF90DF90CF900C94B00416
:100A600041E00E94DD0481E090E0089540E00C94B4
:100A7000DD0461E00E9436058BE39FE10197F1F709
:100A80000895DC01E0E0615038F08D91E827F0E056
:100A9000E859FF4FE491F7CF8E2F0895FC01908124
:100AA0000180F281E02DF8948181892B818322815C
:100AB000892F809528232283A7E0B0E01197F1F7D2
:100AC000218182238183A3E2B0E01197F1F7808135
:100AD0007894EFECF0E03197F1F7982381E009F496
:100AE00080E00895EF92FF920F931F93CF93DF93CF
:100AF0007C0108E010E0C0E0D1E0C7010E944E0593
:100B00008111CD2BDD0F01501109B9F78C2FDF9129
:100B1000CF911F910F91FF90EF900895FC0190816C
:100B20000180F281E02D892F809560FF12C0F8943A
:100B30002281822382838181892B8183A3E2B0E099
:100B40001197F1F78281982B9283789487ED90E04A
:100B500011C0F8942281822382838181892B818331
:100B6000AFEFB0E01197F1F78281982B92837894E0
:100B70008FE090E00197F1F70895CF92DF92EF9226
:100B8000FF920F931F93CF93DF931F92CDB7DEB7E2
:100B90006C01E62E08E010E0FF24F39461E08F2D55
:100BA0008E2109F460E0C60149830E948E05FF0C86
:100BB0000150110949810115110581F7411115C035
:100BC000F894D6011196ED91FC91129791818C9138
:100BD0008095892381831196ED91FC9112979281E2
:100BE0008C9180958923828378940F90DF91CF91A7
:100BF0001F910F91FF90EF90DF90CF900895CF92CB
:100C0000DF92EF92FF920F931F93CF93DF931F9288
:100C1000CDB7DEB78C01F62E40E065E579830E9402
:100C2000BD05CF2C7981D72E760188E0E80EF11C26
:100C3000F60161916F0140E0C8010E94BD05CE142C
:100C4000DF04B1F70F90DF91CF911F910F91FF90CB
:100C5000EF90DF90CF900895FC0190810180F281A8
:100C6000E02DF8948181292F209582238183789427
:100C70008DE743E050E0815021F1DA011197F1F75F
:100C800030813923C1F3F894828182238283818168
:100C9000892B81837894ABE7B7E01197F1F7F8944B
:100CA000818128232183A3E1B1E01197F1F78081AD
:100CB000982381E009F080E07894E3E6F6E031974C
:100CC000F1F70895EF92FF920F931F93CF93DF9365
:100CD000EC01623018F08F8588608F876B8B1C8ADF
:100CE00080E48D8B80E18E8B80E58F8B61E08C8141
:100CF0000E942A048D818F3F19F061E00E942A042E
:100D000061E08E810E942A047E0187E0E80EF11CDA
:100D100000E010E08F8584FD03C084E090E002C015
:100D200088E090E0081719074CF461E0F701819121
:100D30007F010E942A040F5F1F4FECCF8BE39DE0E1
:100D40000197F1F760E08C810E94E40360E08E81FE
:100D50000E94E4038D818F3F19F060E00E94E4035C
:100D60006F8564FD1DC063E0CE010E94B0040BE4FA
:100D700016E4C8010197F1F763E0CE010E94B004C8
:100D8000C8010197F1F763E0CE010E94B00483E54A
:100D900092E00197F1F762E0CE010E94B00416C024
:100DA0006062CE010E9436058BE496E40197F1F76C
:100DB0006F856062CE010E94360583E592E001975F
:100DC000F1F76F856062CE010E9436056F85606223
:100DD000CE010E94360584E0888B6CE0CE010E9433
:100DE0003605CE010E94390582E0898B66E0CE018E
:100DF000DF91CF911F910F91FF90EF900C943605EA
:100E0000E0910702E23010F4E15001C0E1E0F0E0CF
:100E1000EC50FE4F9489682F690F606884EF91E071
:100E20000C943605009769F0FC0101900020E9F769
:100E30003197AF01481B590BBC0184EF91E00C9432
:100E40000C0180E090E008958F929F92AF92BF9244
:100E50000F931F93CF93DF93CDB7DEB7A1970FB654
:100E6000F894DEBF0FBECDBF19A2423008F44AE0AD
:100E70008E010F5D1F4F842E912CA12CB12CA5014A
:100E800094010E94020EE62FB901CA010150110916
:100E9000EA3014F4E05D01C0E95CD801EC93232B47
:100EA000242B252B61F7C8010E941207A1960FB6CB
:100EB000F894DEBF0FBECDBFDF91CF911F910F9190
:100EC000BF90AF909F908F900895AF92BF92CF92B6
:100ED000DF92EF92FF920F931F93CF93DF931F92B6
:100EE000CDB7DEB75C01D62EE72EFC0185858111DA
:100EF00005C0C5010E942C06811106C0F5011386AC
:100F00001586148680E065C040E060EFC5010E9450
:100F1000BD0501E0F12CC12C11E0C5010E944E0578
:100F2000682FC50169830E944E056981613019F4FB
:100F30008130B9F433C04F2D50E068131BC0F50168
:100F40008385181730F4E40FF51F8381802349F45B
:100F500002C0181731F060E0193058F4F501148719
:100F600008C0F501EF0DF11D8381802B838361E0C3
:100F700009C0C12EF501E40FF51F9381802F8095E4
:100F800089238383C5010E948E051F5F000F11F422
:100F9000F39401E0F7E0FF1508F0BFCF113408F437
:100FA000ADCFF501C386C11002C081E08587F50190
:100FB0008381882309F4A2CFD5011396ED2DFE2D50
:100FC0009501255F3F4F8D918193A217B307D9F704
:100FD00081E00F90DF91CF911F910F91FF90EF90E3
:100FE000DF90CF90BF90AF900895EF92FF920F9354
:100FF0001F93CF93DF937C018B01CCE0D2E08D81F6
:101000009E810E942C06B7018D819E810E94FF0562
:1010100040E06EEB8D819E810E94BD058D819E8199
:101020000E947205F80180838D819E810E94720565
:10103000F80181838D819E810E947205F80182836F
:101040008D819E810E947205F80183838D819E812E
:101050000E947205F80184838D819E810E94720531
:10106000F80185838D819E810E947205F801868337
:101070008D819E810E947205F80187838D819E81FA
:101080000E947205F80180878D819E81DF91CF914A
:101090001F910F91FF90EF900C942C06CF93DF934C
:1010A000CDB7DEB729970FB6F894DEBF0FBECDBF20
:1010B000FC012081203109F1BE016F5F7F4F0E944A
:1010C000F50768E0CE0101960E94410599858913D4
:1010D00010C08D818F3359F018F48F3171F009C031
:1010E0008F3519F08F3739F004C08BE007C08AE0E4
:1010F00005C080E003C08CE001C089E029960FB6EE
:10110000F894DEBF0FBECDBFDF91CF910895CF938E
:10111000DF93CDB7DEB761970FB6F894DEBF0FBE91
:10112000CDBF789484B5826084BD84B5816084BD70
:1011300085B5826085BD85B5816085BD80916E0075
:10114000816080936E0010928100809181008260A6
:1011500080938100809181008160809381008091E3
:1011600080008160809380008091B10084608093D2
:10117000B1008091B00081608093B00080917A00CE
:10118000846080937A0080917A00826080937A00F4
:1011900080917A00816080937A0080917A008068E3
:1011A00080937A001092C100E0916501F091660190
:1011B00082E08083E0916101F09162011082E09110
:1011C0006301F09164018FEC808310926D01E091D6
:1011D0006901F0916A0186E08083E0916701F091F6
:1011E0006801808180618083E0916701F0916801EE
:1011F000808188608083E0916701F091680180813F
:1012000080688083E0916701F091680180818F7D23
:101210008083E0911102F0911202138615861486E4
:10122000DF011B9633961E92AE17BF07E1F71092AF
:10123000100201E0BE01665F7F4F80911102909124
:1012400012020E946507882309F451C067E0CE01AD
:101250000A960E94410599898913ECCF80910C026E
:10126000811127C080911102909112020E942C06D8
:10127000BE01665F7F4F80911102909112020E9421
:10128000FF0540E064EB80911102909112020E94F0
:10129000BD0580911102909112020E944E05F82E18
:1012A00080911102909112020E942C06FF2009F4F5
:1012B00097C1BE016F5F7F4FCE010A960E94F5076E
:1012C000F0900D02CE010A960E944E088F1518F478
:1012D00080910D0204C0CE010A960E944E088093B0
:1012E0000D02809110028F5F80931002A3CF61E006
:1012F00081E10E942A0460E088E00E942A0462E002
:1013000084EF91E00E9462068CE291E00E94120755
:1013100085E00E9400078BE391E00E941207F3E052
:10132000EF2EF12CA6EBCA2EA1E0DA2E809111024D
:10133000909112020E942C0640E06CEC8091110208
:10134000909112020E94BD0540910C0264E48091CC
:101350001102909112020E94BD0580910E02882315
:10136000E9F080910D028A3049F08B3061F08930CC
:1013700079F46EE570E080E090E00EC06CEB70E018
:1013800080E090E009C067E771E080E090E004C091
:101390006EEE72E080E090E00E946002E091110247
:1013A000F0911202138615861486DF011B96CF0179
:1013B00003961E92A817B907E1F7BE01665F7F4F3B
:1013C000CF010E946507882329F067E0CE010A96C5
:1013D0000E944105BE016F5F7F4FCE010A960E94B9
:1013E000F50768E0CE0101960E94410599858913B1
:1013F00088C06A8170E0362F22278981B901682B65
:101400008A858232B1F18832A1F1803109F07FC042
:10141000188575956795072E000C880B990B0E940F
:10142000DB0C20E030E040E85EE30E94C60B2B01BD
:101430003C01612F70E08F81681B7109072E000C41
:10144000880B990B0E94DB0C4B015C01612F70E053
:1014500080E090E00E94D90C9B01AC01C501B40171
:101460000E94380C9B01AC01C301B2010E94C70B62
:1014700043C08D818F3381F198F48F3109F047C0DB
:1014800033E0759567953A95E1F7072E000C880BC8
:10149000990B0E94DB0C20E030E040E05FE32AC0C3
:1014A0008F3569F08F3799F5072E000C880B990B53
:1014B0000E94DB0C20E030E040E85DE31BC0759546
:1014C0006795072E000C880B990B0E94DB0C20E01F
:1014D00030E040E05EE30EC07595679575956795C1
:1014E000072E000C880B990B0E94DB0C20E030E0EB
:1014F00040E85EE30E94900D162F772E682E592E3D
:1015000006C0212C312C9EEF492E02EC04C0212E66
:10151000372C462C052DC101A42DB02F80935101ED
:1015200090935201A0935301B093540120E030E016
:1015300040EA50E4B101842D902F0E94330C87FFC4
:101540000DC020E030E04EEF52ECB101842D902F21
:101550000E94330C8823B9F061E012C020E030E033
:1015600040EA50E4B101842D902F0E948B0D181693
:1015700054F48091F2019091F301892B21F460E001
:1015800081E10E94E4038091F2019091F3010097C0
:1015900029F4F092F301E092F20105C001979093D3
:1015A000F3018093F2010E94A102E4E8F1E084914A
:1015B000F6010491E2EAF1E04490442071F08111D7
:1015C0000E941202E42DF0E0EE0FFF1FE057FE4FE5
:1015D000A591B4918C91082331F40E940802A6CE03
:1015E00000930C0266CE84EF91E00E9439058DE3F2
:1015F00091E00E94120760ED77E080E090E00E94A9
:10160000600284EF91E00E9439058CE291E00E9433
:10161000120785E00E9400078BE391E00E94120709
:101620000E94A102DACF109258011092570188EE61
:1016300093E0A0E0B0E08093590190935A01A09309
:101640005B01B0935C0184E091E09093560180933C
:10165000550185EC90E0909362018093610184ECE8
:1016600090E0909364018093630180EC90E090930C
:1016700066018093650181EC90E09093680180930E
:10168000670182EC90E090936A018093690186EC97
:1016900090E090936C0180936B0110926E01109218
:1016A0006F01109270011092710160E089E00E9458
:1016B0002A04E7EBF1E0E491E0931F02E3EAF1E0B2
:1016C000E491F0E0EE0FFF1FE057FE4F85919491FB
:1016D000909321028093200210922A0210922C02F1
:1016E00010922B02EAE2F2E0129282E0E232F80774
:1016F000D9F78EE992E090931E0280931D028FE14C
:1017000092E09093120280931102109210021092B4
:101710000C0289E080930D0281E080930E02809399
:101720000F021092F7011092F60186E191E090937A
:10173000F5018093F4018CE08093F8018FEF8093A2
:10174000F9018BE08093FA0185E08093FB0184E04E
:101750008093FC0183E08093FD0182E08093FE0191
:101760001092FF01109200021092010210920202E8
:101770001092030261E084EF91E00E94620683E030
:1017800090E09093F3018093F20108955058BB27A5
:10179000AA270E94DE0B0C94510D0E94430D38F0D5
:1017A0000E944A0D20F039F49F3F19F426F40C945E
:1017B000400D0EF4E095E7FB0C943A0DE92F0E94E2
:1017C000620D58F3BA17620773078407950720F074
:1017D00079F4A6F50C94840D0EF4E0950B2EBA2F37
:1017E000A02D0B01B90190010C01CA01A001112427
:1017F000FF27591B99F0593F50F4503E68F11A16D3
:10180000F040A22F232F342F4427585FF3CF469563
:1018100037952795A795F0405395C9F77EF41F1685
:10182000BA0B620B730B840BBAF09150A1F0FF0F4F
:10183000BB1F661F771F881FC2F70EC0BA0F621F3B
:10184000731F841F48F4879577956795B795F7952B
:101850009E3F08F0B0CF9395880F08F09927EE0FC0
:101860009795879508950E94160D08F481E00895D4
:101870000E944C0C0C94510D0E944A0D58F00E948D
:10188000430D40F029F45F3F29F00C943A0D5111BB
:101890000C94850D0C94400D0E94620D68F3992301
:1018A000B1F3552391F3951B550BBB27AA2762175C
:1018B0007307840738F09F5F5F4F220F331F441F69
:1018C000AA1FA9F335D00E2E3AF0E0E832D091509D
:1018D0005040E695001CCAF72BD0FE2F29D0660F8A
:1018E000771F881FBB1F261737074807AB07B0E8CD
:1018F00009F0BB0B802DBF01FF2793585F4F3AF0D3
:101900009E3F510578F00C943A0D0C94850D5F3F85
:10191000E4F3983ED4F3869577956795B795F79558
:101920009F5FC9F7880F911D9695879597F9089540
:10193000E1E0660F771F881FBB1F621773078407DC
:10194000BA0720F0621B730B840BBA0BEE1F88F7EB
:10195000E09508950E946A0D88F09F5798F0B92F7E
:101960009927B751B0F0E1F0660F771F881F991FD4
:101970001AF0BA95C9F714C0B13091F00E94840DE5
:10198000B1E008950C94840D672F782F8827B85FF5
:1019900039F0B93FCCF3869577956795B395D9F72C
:1019A0003EF490958095709561957F4F8F4F9F4F36
:1019B0000895E89409C097FB3EF490958095709542
:1019C00061957F4F8F4F9F4F9923A9F0F92F96E98B
:1019D000BB279395F695879577956795B795F11100
:1019E000F8CFFAF4BB0F11F460FF1BC06F5F7F4F9D
:1019F0008F4F9F4F16C0882311F096E911C07723AF
:101A000021F09EE8872F762F05C0662371F096E8B7
:101A1000862F70E060E02AF09A95660F771F881F86
:101A2000DAF7880F9695879597F90895990F00082A
:101A3000550FAA0BE0E8FEEF16161706E807F907A0
:101A4000C0F012161306E407F50798F0621B730B3B
:101A5000840B950B39F40A2661F0232B242B252BBC
:101A600021F408950A2609F4A140A6958FEF811D5F
:101A7000811D089597F99F6780E870E060E0089500
:101A80009FEF80EC089500240A9416161706180696
:101A90000906089500240A94121613061406050672
:101AA0000895092E0394000C11F4882352F0BB0F03
:101AB00040F4BF2B11F460FF04C06F5F7F4F8F4F66
:101AC0009F4F089557FD9058440F551F59F05F3FA1
:101AD00071F04795880F97FB991F61F09F3F79F050
:101AE00087950895121613061406551FF2CF4695D2
:101AF000F1DF08C0161617061806991FF1CF869554
:101B00007105610508940895E894BB276627772737
:101B1000CB0197F908950E94160D08F48FEF0895F0
:101B20000E94A30D0C94510D0E94430D38F00E94A9
:101B30004A0D20F0952311F00C943A0D0C94400DB1
:101B400011240C94850D0E94620D70F3959FC1F3D2
:101B5000950F50E0551F629FF001729FBB27F00D5B
:101B6000B11D639FAA27F00DB11DAA1F649F6627B0
:101B7000B00DA11D661F829F2227B00DA11D621FFF
:101B8000739FB00DA11D621F839FA00D611D221FB9
:101B9000749F3327A00D611D231F849F600D211D9D
:101BA000822F762F6A2F11249F5750409AF0F1F020
:101BB00088234AF0EE0FFF1FBB1F661F771F881F89
:101BC00091505040A9F79E3F510580F00C943A0D7A
:101BD0000C94850D5F3FE4F3983ED4F3869577959A
:101BE0006795B795F795E7959F5FC1F7FE2B880F2F
:101BF000911D9695879597F908950E94160D880B6B
:101C0000990B0895A1E21A2EAA1BBB1BFD010DC062
:101C1000AA1FBB1FEE1FFF1FA217B307E407F5079C
:101C200020F0A21BB30BE40BF50B661F771F881F78
:101C3000991F1A9469F760957095809590959B010E
:101C4000AC01BD01CF010895EE0FFF1F0590F49187
:101C5000E02D099481E090E0F8940C942F0EF89414
:021C6000FFCFB4
:101C6200000000009F010C013701E60168014601F6
:101C72005A010000000030050C019B029A02030089
:101C82006E616E00696E66006F76660043757272F1
:101C9200656E742074656D703A200043004D616971
:081CA2006E206D656E750000F7
:00000001FF
